{
  "contractName": "vote",
  "abi": [
    {
      "constant": true,
      "inputs": [
        {
          "internalType": "uint256",
          "name": "",
          "type": "uint256"
        }
      ],
      "name": "voter_blue",
      "outputs": [
        {
          "internalType": "string",
          "name": "color",
          "type": "string"
        },
        {
          "internalType": "address",
          "name": "person",
          "type": "address"
        }
      ],
      "payable": false,
      "stateMutability": "view",
      "type": "function"
    },
    {
      "constant": true,
      "inputs": [
        {
          "internalType": "uint256",
          "name": "",
          "type": "uint256"
        }
      ],
      "name": "voter_red",
      "outputs": [
        {
          "internalType": "string",
          "name": "color",
          "type": "string"
        },
        {
          "internalType": "address",
          "name": "person",
          "type": "address"
        }
      ],
      "payable": false,
      "stateMutability": "view",
      "type": "function"
    },
    {
      "constant": true,
      "inputs": [],
      "name": "votes_count",
      "outputs": [
        {
          "internalType": "uint256",
          "name": "",
          "type": "uint256"
        }
      ],
      "payable": false,
      "stateMutability": "view",
      "type": "function"
    },
    {
      "constant": false,
      "inputs": [
        {
          "internalType": "address",
          "name": "_person",
          "type": "address"
        }
      ],
      "name": "Red",
      "outputs": [],
      "payable": false,
      "stateMutability": "nonpayable",
      "type": "function"
    },
    {
      "constant": false,
      "inputs": [
        {
          "internalType": "address",
          "name": "_person",
          "type": "address"
        }
      ],
      "name": "Blue",
      "outputs": [],
      "payable": false,
      "stateMutability": "nonpayable",
      "type": "function"
    },
    {
      "constant": true,
      "inputs": [],
      "name": "TotalVotes",
      "outputs": [
        {
          "internalType": "uint256",
          "name": "",
          "type": "uint256"
        }
      ],
      "payable": false,
      "stateMutability": "view",
      "type": "function"
    },
    {
      "constant": true,
      "inputs": [],
      "name": "RedVotes",
      "outputs": [
        {
          "internalType": "uint256",
          "name": "",
          "type": "uint256"
        }
      ],
      "payable": false,
      "stateMutability": "view",
      "type": "function"
    },
    {
      "constant": true,
      "inputs": [],
      "name": "BlueVotes",
      "outputs": [
        {
          "internalType": "uint256",
          "name": "",
          "type": "uint256"
        }
      ],
      "payable": false,
      "stateMutability": "view",
      "type": "function"
    }
  ],
  "bytecode": "0x608060405260006002556000600355600060045534801561001f57600080fd5b506108a78061002f6000396000f3fe608060405234801561001057600080fd5b50600436106100885760003560e01c806374a7b9511161005b57806374a7b9511461011657806389dc352114610147578063a33d907714610165578063c2320d621461018357610088565b80630f895a111461008d578063134c6054146100be5780632fd73f02146100dc5780633b3e998f146100fa575b600080fd5b6100a760048036036100a291908101906106cf565b61019f565b6040516100b592919061074f565b60405180910390f35b6100c6610288565b6040516100d3919061077f565b60405180910390f35b6100e4610292565b6040516100f1919061077f565b60405180910390f35b610114600480360361010f91908101906106a6565b61029c565b005b610130600480360361012b91908101906106cf565b6103bd565b60405161013e92919061074f565b60405180910390f35b61014f6104a6565b60405161015c919061077f565b60405180910390f35b61016d6104b0565b60405161017a919061077f565b60405180910390f35b61019d600480360361019891908101906106a6565b6104b6565b005b600081815481106101ac57fe5b9060005260206000209060020201600091509050806000018054600181600116156101000203166002900480601f0160208091040260200160405190810160405280929190818152602001828054600181600116156101000203166002900480156102585780601f1061022d57610100808354040283529160200191610258565b820191906000526020600020905b81548152906001019060200180831161023b57829003601f168201915b5050505050908060010160009054906101000a900473ffffffffffffffffffffffffffffffffffffffff16905082565b6000600454905090565b6000600254905090565b60606040518060400160405280600481526020017f426c7565000000000000000000000000000000000000000000000000000000008152509050600160405180604001604052808381526020018473ffffffffffffffffffffffffffffffffffffffff1681525090806001815401808255809150509060018203906000526020600020906002020160009091929091909150600082015181600001908051906020019061034a9291906105d7565b5060208201518160010160006101000a81548173ffffffffffffffffffffffffffffffffffffffff021916908373ffffffffffffffffffffffffffffffffffffffff1602179055505050506002600081548092919060010191905055506004600081548092919060010191905055505050565b600181815481106103ca57fe5b9060005260206000209060020201600091509050806000018054600181600116156101000203166002900480601f0160208091040260200160405190810160405280929190818152602001828054600181600116156101000203166002900480156104765780601f1061044b57610100808354040283529160200191610476565b820191906000526020600020905b81548152906001019060200180831161045957829003601f168201915b5050505050908060010160009054906101000a900473ffffffffffffffffffffffffffffffffffffffff16905082565b6000600354905090565b60025481565b60606040518060400160405280600381526020017f52656400000000000000000000000000000000000000000000000000000000008152509050600060405180604001604052808381526020018473ffffffffffffffffffffffffffffffffffffffff168152509080600181540180825580915050906001820390600052602060002090600202016000909192909190915060008201518160000190805190602001906105649291906105d7565b5060208201518160010160006101000a81548173ffffffffffffffffffffffffffffffffffffffff021916908373ffffffffffffffffffffffffffffffffffffffff1602179055505050506002600081548092919060010191905055506003600081548092919060010191905055505050565b828054600181600116156101000203166002900490600052602060002090601f016020900481019282601f1061061857805160ff1916838001178555610646565b82800160010185558215610646579182015b8281111561064557825182559160200191906001019061062a565b5b5090506106539190610657565b5090565b61067991905b8082111561067557600081600090555060010161065d565b5090565b90565b60008135905061068b81610836565b92915050565b6000813590506106a08161084d565b92915050565b6000602082840312156106b857600080fd5b60006106c68482850161067c565b91505092915050565b6000602082840312156106e157600080fd5b60006106ef84828501610691565b91505092915050565b610701816107b6565b82525050565b60006107128261079a565b61071c81856107a5565b935061072c8185602086016107f2565b61073581610825565b840191505092915050565b610749816107e8565b82525050565b600060408201905081810360008301526107698185610707565b905061077860208301846106f8565b9392505050565b60006020820190506107946000830184610740565b92915050565b600081519050919050565b600082825260208201905092915050565b60006107c1826107c8565b9050919050565b600073ffffffffffffffffffffffffffffffffffffffff82169050919050565b6000819050919050565b60005b838110156108105780820151818401526020810190506107f5565b8381111561081f576000848401525b50505050565b6000601f19601f8301169050919050565b61083f816107b6565b811461084a57600080fd5b50565b610856816107e8565b811461086157600080fd5b5056fea365627a7a7231582030d22ecdf9e8cd1c427fd7a004c0efb691ba3d0e4b53eaa62fe71d311ad31a4e6c6578706572696d656e74616cf564736f6c63430005100040",
  "source": "//SPDX-License-Identifier: MIT\n\npragma solidity >=0.4.17 <0.9.0;\npragma experimental ABIEncoderV2;\n\ncontract vote {\n    struct _voter {\n        string color;\n        address person;\n    }\n\n    _voter[] public voter_red;\n    _voter[] public voter_blue;\n    uint256 public votes_count = 0; \n    uint256 internal red_voter = 0; \n    uint256 internal blue_voter = 0;\n\n    function Red(address _person) public{\n\n        string memory _color = \"Red\";\n        voter_red.push(_voter({color: _color, person: _person}));\n        votes_count++;\n        red_voter++;\n        \n\n      \n    }\n\n    function Blue(address _person) public{\n\n        string memory _color = \"Blue\";\n        voter_blue.push(_voter({color: _color, person: _person}));\n        votes_count++;\n        blue_voter++;\n        \n    }\n\n    function TotalVotes()view public returns(uint256){\n      return votes_count;\n    }\n\n    function RedVotes()view public returns(uint256){\n      return red_voter;\n    }\n\n    function BlueVotes()view public returns(uint256){\n      return blue_voter;\n    }\n}\n",
  "sourcePath": "C:\\stuff\\voting2\\contracts\\SimpleStorage.sol",
  "compiler": {
    "name": "solc",
    "version": "0.5.16+commit.9c3226ce.Emscripten.clang"
  },
  "schemaVersion": "3.4.7",
  "updatedAt": "2022-05-04T10:59:35.470Z",
  "devdoc": {
    "methods": {}
  },
  "userdoc": {
    "methods": {}
  }
}